:020000040800F2
:1030000000500020513C000808B544F2190300208C
:10301000C0F60003984708BD00B50A4B83B0984737
:10302000002409488047094D02224FF47A71084B69
:1030300020460094A847204606498847064A9047FC
:10304000FEE700BF753D00085D300008354400080C
:10305000093000085544000835310008704700BFAA
:1030600038B546F2A40043F67D1446F2A805C0F632
:103070000004C0F60005C0F60000A0472846A0479F
:1030800046F2E400C0F60000A0472846A04746F2FA
:103090002010C0F60000A04746F25C10C0F6000009
:1030A000A04746F29810C0F60000A04746F2D410A0
:1030B000C0F60000A04746F21020C0F60000A0476E
:1030C00046F24C20C0F60000A04746F28820C0F629
:1030D0000000A04746F2C420C0F60000A04746F218
:1030E0000030C0F60000A04746F23C30C0F60000B9
:1030F000A0472846A04746F27830C0F60000A04717
:1031000038BD00BF38B546F27C3043F67D14C0F6BA
:103110000004C0F60000A04743F60973C0F60003A0
:103120009847054646F27830C0F60000A04728468A
:1031300038BD00BF38B5084DA847084CA047034626
:1031400040B14D2B01D06D2BF8D1A847A0470346C5
:103150000028F6D138BD00BF6130000805310008F5
:1031600038B5094B0546197851B1084A0849146821
:103170000868631C0555096813600022CA5438BDED
:10318000044B984738BD00BF040200200002002015
:10319000B4020020ED3E000838B548B141B10878CE
:1031A00030B1044D0C46A84714F8010F0028FAD19D
:1031B00038BD00BF6131000830B4C8B10378CBB16D
:1031C00000230B60027892B1303AD4B2092C02D9B4
:1031D00012E0092D10D803EB830402EB44030B60CB
:1031E00010F8014FA4F13002D5B2002CF1D101202A
:1031F00030BC70471846FBE70020F9E72DE9F0479F
:1032000082460078002384B0B1F100080093BABF71
:10321000C8F100084FF001099946002800F04081EC
:103220000025642829D0A14E2C462F46A0F131025A
:10323000082A00F28E801AF804200AEB0401A2F199
:10324000300009284FF0000301A809D8C25411F832
:10325000012F0134A2F1300E0133BEF1090FF5D96F
:1032600004A9CA18694602F80C7C013CB047013435
:103270001AF8040008B16428D8D1B9F1000F40F061
:103280000B818B4E0098002867D0092800F3FF803F
:10329000441E811EC71E002C00F0048101F00104B1
:1032A00064234A1E71B124B1013A511C4FF47A7360
:1032B00008D003EB8304E10001EB4403023A5B0016
:1032C000511CF6D198FBF3F2022803FB128800F0A0
:1032D000EB8007F001006424791E77B120B1013939
:1032E000481C4FF47A7408D004EB8407FC0004EB0C
:1032F000470302395C004F1CF6D146F267674FF076
:103300000109C6F266670FE0012C15D0B9F1000F74
:1033100012D0302005B92020B04787FB0420E117E8
:10332000C1EBA004002C11DD98FBF4F2D0B23030D8
:1033300004FB1288002AE7D0B04787FB0420E1177E
:10334000C1EBA004002C4FF00009EDDC04B0BDE897
:10335000F087302808BF012589E742F6A173C4F23F
:10336000B84383FB08244FEAE8714FF44A42C1EBAB
:103370002470C3F69A3202FB1088002800F09A806D
:10338000C0B243F689343030C5F2E654B04784FB0E
:1033900008204FEAE8714FF46142C1EB6060C0F26F
:1033A000F55202FB10843030B0474CF66B23C6F662
:1033B0005F3383FB0420E11749F28062C1EBA05028
:1033C000C0F2980202FB10443030B0474DF68363E0
:1033D000C4F21B3383FB0420E11744F24022C1EB0B
:1033E000A040C0F20F0202FB10443030B0474BF255
:1033F0008953C1F2F84383FB0420E11748F2A0622D
:10340000C1EB6030C0F2010202FB10443030B04723
:1034100048F6AD33C6F6DB0383FB0420E117C1EBAE
:10342000203042F2107202FB10443030B04744F6B4
:10343000D353C1F2620383FB0420E117C1EBA01058
:103440004FF47A7202FB10443030B04748F21F53F9
:10345000C5F2EB1383FB0420E117C1EB601064227B
:1034600002FB10443030B04746F26763C6F2666331
:1034700083FB0420E117C1EBA00000EB8002A4EB6A
:1034800042043030B04704F13000B0475EE7092015
:1034900000900627072101E72D20054EB047F1E6F1
:1034A0000546EAE60A230DE70A2426E7B9310008B3
:1034B0006131000843F68933C5F2E65383FB0821E6
:1034C0004FF461444FEAE872C2EB6160C0F2F55418
:1034D00004FB108400287FF466AF4CF66B20C6F620
:1034E0005F3080FB042149F28063E217C2EBA150F8
:1034F000C0F2980303FB104400287FF465AF4DF63B
:103500008360C4F21B3080FB042144F24023E217A5
:10351000C2EBA140C0F20F0303FB104400287FF46C
:1035200064AF4BF28950C1F2F84080FB042148F2AD
:10353000A063E217C2EB6130C0F2010303FB104449
:1035400000287FF463AF48F6AD30C6F6DB0080FBA1
:103550000421E217C2EB213042F2107303FB104446
:1035600000287FF462AF44F6D350C1F2620080FBC2
:103570000421E217C2EBA1104FF47A7303FB10444D
:1035800000287FF461AF48F21F50C5F2EB1080FBBA
:103590000421E217C2EB6110642303FB10440028EE
:1035A0007FF460AF46F26760C6F2666080FB04217C
:1035B000E217C2EBA10000EB8003A4EB4304002858
:1035C0003FF461AF5DE700BF2DE9F043037887B0BA
:1035D0000026814601910296002B00F0B780782BDF
:1035E00000F0B480B44F3446B046A3F13102082A4B
:1035F00000F2A88019F8042009EB0401A2F13003BD
:10360000092B03A84FF0000308D8C25411F8012F6A
:103610000134A2F130050133092DF6D906A9CA18E3
:1036200002A902F80C8C013CB847013419F80430A7
:103630000BB1782BD9D10199029B0ABA0192002BC8
:1036400000F08780D80700F10F810121C3F1080243
:1036500002EBD2735A10032A00F3C98001ACA518FB
:103660002C4614F8010BEF43030907F001090DF193
:103670000808924D00F00F0700F03181092B40F24D
:103680006E8103F13700A8470021002F00F0308140
:10369000092F40F2528107F13700A8470021444525
:1036A00000F0A580B9F1000F17D014F8010B030941
:1036B00000F00F0731D0092B40F2428103F13700AF
:1036C000A8470022A7B3092F40F23D8107F1370038
:1036D000A8470021444500F08A8014F8013B1A09EC
:1036E00003F00F0700F0D480092A88BF02F13700E9
:1036F00040F22C81A8470021002F00F0D280092F32
:1037000088BF07F1370040F22481A84714F8010B65
:103710000021030900F00F07CDD1002900F010812E
:10372000002E40F0CD802020A8470122002FCAD1D2
:10373000002A00F00881002E40F0BA802020A8471F
:103740000121C7E7302B08BF01266EE7019C25BA8F
:1037500001959DF804301A0903F00F044AD0092A94
:1037600040F2FA8002F13700544DA8470021002CA6
:1037700044D10122002900F0FB809DF80530190991
:1037800003F00F0447D0092940F2EC8001F1370023
:10379000A8470023002C44D10122002B00F0E58033
:1037A0009DF806100B0901F00F0447D0092B40F2D9
:1037B000BE8003F13700A8470021002C43D101222D
:1037C000002900F0B7809DF80730190903F00F04B5
:1037D00045D0092988BF01F1370042D9A847002CFC
:1037E0007AD0092C88BF04F1370075D9A84707B0F3
:1037F000BDE8F0830121314D002CBAD0092C40F2F4
:10380000B78004F13700A8479DF805300022190958
:1038100003F00F04B7D1002A00F0A4800123002C8C
:10382000BAD0092C40F2A18004F13700A8479DF8D6
:10383000061000220B0901F00F04B7D1002A76D040
:103840000121002CBBD0092C74D904F13700A84702
:103850009DF807300022190903F00F04B9D1002A9E
:10386000BDD101F13000B9E7D843083000EBD07387
:1038700006AA02EB630111F8140C10F00F0345D0F7
:10388000092B51D903F137000C4B9847002142E036
:1038900000295BD0E6B13020A8470121002F7FF43A
:1038A0002EAF002955D07EB13020A8470121FCE67B
:1038B0003020A84701210DE7B93100086131000827
:1038C0003020A8470122FDE62020A8470121ECE690
:1038D0002020A84701210FE704F1300086E70029E6
:1038E0003DD07EB13020A8470121002F7FF4D0AE1B
:1038F00019B31EB13020A8470121D0E62020A847E7
:103900000121CCE62020A8470121BEE63EB11A499C
:103910003020884701210298431E029396E620201A
:10392000154A90470121F6E703F13000ACE703F1B7
:10393000300040E704F1300089E707F13000ACE6E1
:1039400003F13000BCE607F13000C1E602F13000BF
:10395000D0E607F13000D8E602F1300004E703F1C9
:10396000300090E601F1300012E704F130005DE72D
:1039700004F1300047E700BF613100080FB42DE9C2
:10398000F04385B00DF13009AC4B002259F8044BDF
:10399000AB4DDFF8B882AB4FAB4E1A7020780028E1
:1039A00000F0BE80252840F0C0806278631CA2F140
:1039B000630101298DF8040040F2D680782A00F0D6
:1039C000DD80732A00F0DD80252A00F0DD80A178FB
:1039D0008DF80520A1F16302A31C012A40F2D680D4
:1039E000782900F0D680732900F0D680252900F0D0
:1039F000D680E2788DF80610A2F16301E31C01295C
:103A000040F2CF80782A00F0CF80732A00F0CF8078
:103A1000252A00F0CF8021798DF80720A1F16302DB
:103A2000231D012A40F2C880782900F0C88073293C
:103A300000F0C880252900F0C88062798DF8081050
:103A4000A2F16301631D012940F2C180782A00F0D0
:103A5000C180732A00F0C180252A00F0C180A179BD
:103A60008DF80920A1F16302A31D012A40F2BA805A
:103A7000782900F0BA80732900F0BA80252900F077
:103A8000BA80E2798DF80A10A2F16301E31D0129E1
:103A900040F2B380782A00F0B380732A00F0B3803C
:103AA000252A00F0B380217A8DF80B20A1F1630262
:103AB000012A04F1080340F2AB80782900F0AB80C2
:103AC000732900F0AB80252900F0AB80627A8DF875
:103AD0000C10A2F16301012904F1090340F2A38053
:103AE000782A00F0A380732A00F0A380252A00F032
:103AF000A380A07A8DF80D2004F10A035C1C6428D1
:103B00002BD015D825281FD063287FF447AF99F80C
:103B10000000A847207809F1040900287FF442AF8B
:103B200005B0BDE8F04304B07047A847013435E75D
:103B300073280BD078287FF431AFD9F8001001A892
:103B400009F10409B04729E7A84727E7D9F8001089
:103B500001A809F10409B84720E7D9F8001001A825
:103B600009F10409C04719E71046012404AA1419F1
:103B7000002104F80C0C04F80B1CBFE7012478208A
:103B8000F4E701247320F1E70124EFE7084602245B
:103B9000ECE702247820E9E702247320E6E7022418
:103BA000E4E710460324E1E703247820DEE703245A
:103BB0007320DBE70324D9E708460424D6E704246E
:103BC0007820D3E704247320D0E70424CEE71046FE
:103BD0000524CBE705247820C8E705247320C5E732
:103BE0000524C3E708460624C0E706247820BDE77D
:103BF00006247320BAE70624B8E710460724B5E781
:103C000007247820B2E707247320AFE70724ADE745
:103C100008460824AAE708247820A7E70824732088
:103C2000A4E70824A2E7104609249FE70924782086
:103C30009CE70924732099E7092497E704020020F0
:103C40006131000899310008C9350008FD310008CC
:103C5000684620F007018D462DE9F1433F49DFF822
:103C6000088104251C2441F2140C41F21C0E41F27F
:103C7000180741F2100041F20C020023C4F20200C6
:103C80004FF0FF36C4F20202C4F2020CC4F2020E7C
:103C9000C4F20207C4F20105C4F201044FF0140992
:103CA0004145CCF80090CEF800303B6006601660CD
:103CB000036013602B6023601CD208F103050C1D08
:103CC0002E1B274826F00302161D05680423B34265
:103CD0000D60C2F380020DD022B142680823B342C6
:103CE000226007D01D581A1D5D5084580833B34216
:103CF0008C50F7D11D481E494FF000028842B8BFD2
:103D000040F8042BFFF6FAAF4FF48052C4F20202DF
:103D100011684FF4A06341F48030106004E0106833
:103D2000810305D4013B03D01168013B8803F6D51C
:103D30004FF40051C4F202010A6842F0100008601A
:103D40000B6823F003020A60086840F002030B606E
:103D500004498847BDE8F1438546704700000020CC
:103D60003864000819300008E40000200002002038
:103D700034100020F8B543F61973C0F600039847D5
:103D800044F27D10C0F60000804740F604064FF470
:103D9000006E43F2B3474FF4406540F6044441F2ED
:103DA000040144F244404FF03332C4F2010EC3F236
:103DB0004430C4F20101C4F20106C3F23337C4F245
:103DC0000105C4F2010443F6B163CEF80020C0F649
:103DD000000337602A6022600860984743F6D57177
:103DE000C0F60001884744F2CD10C0F600008047BD
:103DF00044F26942C0F600029047F8BD00B543F6B0
:103E00000403C4F20103186883B002A944F28D02CE
:103E100001F8010DC0F600020020904703B000BD7C
:103E20002DE9F04141F21806C4F20206356840F26D
:103E3000B823C2F2000343F60C0443F6100C43F619
:103E4000140E43F6080758609960C4F2010400227A
:103E500045F48048C4F2010CC4F2010E0C2040F27B
:103E60007121C4F201074EF20415C6F80080CEF2AB
:103E700000052060CCF80020CEF8002039602B68C7
:103E800043F020002860216844F2911341F02000A3
:103E900043F6FD512060C0F600012520C0F6000366
:103EA0009847226842F400512160BDE8F08100BFCC
:103EB00044F22D0310B5C0F60003984740F2B82332
:103EC0000022C2F2000343F621644FF4E1301146B0
:103ED000C0F600045A609A601A615A61DA611A6287
:103EE0009A62DA625A639A63A04710BD0A2838B50D
:103EF000044603D0034DE0B2A84738BD0D20014D64
:103F0000A847F8E7C544000808B544F29543C0F651
:103F10000003984708BD00BF41F20403C4F2020346
:103F20001A684FF4805122F47C1020F0F0021A60DD
:103F30001868C4F2020140F4E8121A600B680846DF
:103F400043F080720A6001688B01FCD541F20403E2
:103F5000C4F2020318681A4620F0030119601868B9
:103F600040F002011960186820F480011960186897
:103F700020F4E0611960186840F4806119601868E5
:103F800020F46051196018681860136803F00C0180
:103F90000829FAD141F21800C4F20200026842F482
:103FA000804343F01D010160704700BF43F20401EC
:103FB000C4F2000143F2080200200860C4F20002CB
:103FC0004FF4405301211160C4F200034CF6CC427F
:103FD0001A6070470422C4F20102116840F60443DB
:103FE00021F0E06010601168C4F2010341F08060CC
:103FF0001060196840F60C4221F0F0001860196852
:10400000C4F2010241F030001860196819601368A9
:1040100043F400701060704738B940F60C43C4F2A6
:1040200001031A6882F400701860704740F2EC31A6
:1040300040F2FC320023C2F20001C2F200020B8007
:1040400013804B8053808B809380CB80D3800B81F7
:1040500013814B8153818B8193817047094B0A49AE
:1040600033F9102031F910301F20D21A2032C8F253
:1040700000001040002800DB7047013860F01F018D
:10408000481C7047FC030020EC0300201A4A1B4B1D
:10409000F0B432F8105033F910602CB21F23A61B75
:1040A0002036C8F200033340002B18DB1F2B1CD036
:1040B0000135ADB21F230E78C8F2000329B20B40C0
:1040C00000EB40170E493C19002B0E5522F81050FA
:1040D0000DDB094921F810300120F0BC7047013B8D
:1040E00063F01F0301331F2BE2D10020F5E75A1EB6
:1040F00062F01F030133ECE7FC030020EC03002017
:10410000F40200201A4A1B4B70B432F8105033F9F5
:1041100010602CB21F23361B2036C8F20003334038
:10412000002B17DBE3B100EB401601353419124EBA
:10413000ADB21F23345DC8F200032EB23340002B12
:104140000C7022F810500DDB094921F810300120C5
:1041500070BC7047013B63F01F030133002BE2D1B9
:104160001846F5E7591E61F01F02531CECE700BF2B
:10417000EC030020FC030020F402002040F2006366
:104180004EF60852C2F20003CEF2000213607047EE
:1041900040F200631030C2F2000343F82010704771
:1041A00040F200638008C2F2000343F82010704719
:1041B00008B544F2254144F2A1133C20C0F60001A9
:1041C0000022C0F60003984708BD00BF38B5284D4F
:1041D0002B78012B4AD02748002404704480848027
:1041E0008460047444828482846180F82040448422
:1041F0008484846280F8304044868486846380F8B6
:104200004040A0F84240A0F84440846480F8504008
:10421000A0F85240A0F85440846580F86040A0F8AF
:104220006240A0F864408466134988474EF2140146
:1042300041F63F104EF21802CEF20001C0F201002A
:10424000CEF200024EF210030860CEF200031460BA
:10425000196841F0040018601A6842F00201196000
:10426000186840F001021A6001232B7038BD00BFAE
:104270000502002008020020B1410008664B674A91
:10428000196810B5481C18601488A3B21BB11188B6
:10429000481E84B21480624C2278012A1DD0207CF2
:1042A0005F4A01282BD094F820005D4A012838D0BD
:1042B00094F830005A4A012846D094F84000584AF1
:1042C000012854D094F85000554A012866D094F83B
:1042D0006000534A012878D010BD6388591E88B207
:1042E00060800028DBD16278012A00F08680A188F6
:1042F000A36861809847207C494A0128D3D1518A1C
:104300004B1E98B250820028CDD1517C012972D029
:10431000A28AA3696282984794F82000404A012843
:10432000C6D1518C4B1E98B250840028C0D192F84F
:10433000211001296CD0A28CA36A6284984794F85A
:104340003000374A0128B8D1518E4B1E98B25086A2
:104350000028B2D192F83110012956D0A28EA36B59
:104360006286984794F840002D4A0128AAD1B2F8F5
:1043700042104B1E98B2A2F842000028A2D192F837
:10438000411001293ED0B4F84420A36CA4F8422087
:10439000984794F85000224A012898D1B2F8521058
:1043A0004B1E98B2A2F85200002890D192F85110FA
:1043B000012924D0B4F85420A36DA4F852209847C2
:1043C00094F86000164A012886D1B2F862104B1E9C
:1043D00098B2A2F8620000287FF47EAF92F86110D4
:1043E000A36E012908BF82F86000B4F86420A4F825
:1043F0006220984710BD10748AE7207077E782F832
:104400005000D7E782F84000BDE782F83000A5E70A
:1044100082F820008FE700BF780200207C02002095
:104420000802002008B544F27D23C0F60003984737
:1044300008BD00BF10B440F20824C2F2000404EB2F
:1044400000108360019B4270C3604180818010BC7A
:10445000704700BF062803D8024B000101221A54FE
:10446000704700BF0802002008B544F67963C0F623
:104470000003984744F69960C0F60000804744F670
:10448000DD61C0F60001884745F6FD22C0F6000256
:10449000904708BD10B5002382B0084C8DF8073056
:1044A0000520A0470028FBDD05200DF10701044A87
:1044B00090479DF8070002B010BD00BF5D400008A6
:1044C0000541000808B545F2BD03C0F60003984752
:1044D00008BD00BF38B5154B1A78012A00D038BD89
:1044E000134C206800B34028124A14D8116885B2D2
:1044F0000818106000228BB222600F48C021C0183B
:104500002A460E4B9847012029460D4A9047012024
:104510000C49884738BD1568403805F14001ABB2F9
:10452000206011604025E8E7187038BDA002002027
:10453000AC020020A8020020F8070020415B000820
:10454000F15D0008B55C000838B5134C0320214626
:10455000124B9847054612480278022A07D00E48A7
:10456000E9B2104A904703200F4B984738BD03210A
:10457000ABB28B420170F2D920784328EFD1627838
:104580004D2AECD1A378392BE9D1E1785829E6D12D
:1045900006488047E3E700BF90070020B15E0008AF
:1045A00090020020A94F0008D95C0008AD3F000828
:1045B00008B5084B1868052800D008BD064B1A68D6
:1045C000511C052A1960F8D100201860034B984748
:1045D000F3E700BF94020020800200201950000879
:1045E00045F64442C4F20002136830B58F4C98B2CD
:1045F0008F4D208021882B8889B0194001F40070EC
:1046000081B2002968D1228802F400410B425FD1B7
:10461000228802F480610B424ED1208800F40052BF
:10462000134206D045F64440C4F200004DF6FF7137
:104630000160228802F48050034231D1208800F4C6
:1046400000610B420ED07B4B1A78002A25D1022044
:104650007949884745F64442C4F200024FF2FF719F
:104660002B881160208800F48072134213D045F625
:104670004443C4F2000345F648404FF6FF61C4F2DC
:10468000000019600268100432D46C4B00201860DE
:104690000720694B984709B030BD69488047D9E782
:1046A00045F64443C4F200034EF6FF711960002042
:1046B000614A90472B88C1E7624A45F64443C4F2F9
:1046C00000034FF6FF301860516888472B88A4E735
:1046D0005D4880472B889BE75C4B4FF6FF5010608E
:1046E0001A78511CC8B21870594B98472B888AE722
:1046F000524801684A1C026001680329C8D945F67E
:104700004042C4F2000211680907C1D4156851493A
:10471000ADB24FF4B8440D60C4F20004256845F60C
:104720000444ADB20095C4F20004256845F608447F
:10473000ADB20195C4F20004256845F60C44ADB253
:104740000295C4F20004256845F61044ADB2039505
:10475000C4F20004256845F61444ADB20495C4F2D1
:104760000004256845F61844ADB20595C4F200046E
:10477000256845F61C44ADB20695C4F200042468D1
:10478000A4B207940C6844F001040C600C68A4B255
:1047900014600C6824F001040C60096889B211608F
:1047A000196845F644424905C4F20002F8D54FF6AF
:1047B000FF33136000994FF4B8438AB2C4F2000388
:1047C0001A60019945F604438AB2C4F200031A60E4
:1047D000029945F608438AB2C4F200031A600399AD
:1047E00045F60C438AB2C4F200031A60049945F6F8
:1047F00010438AB2C4F200031A60059945F61443C7
:104800008AB2C4F200031A60069945F618438AB2C8
:10481000C4F200031A60079945F61C438AB2C4F239
:10482000000300211A60016032E700BFD0070020BA
:104830002C10002098020020254D00088C0200203A
:10484000554B00085C000020E95E0008880200204B
:10485000B145000884020020034B987A10B1034947
:1048600005220A60704700BF081000209402002053
:1048700040F29423C2F2000304221A60704700BF82
:10488000034B1A78202A01D100201870704700BF0E
:1048900091020020704700BF212810B5034603D0C5
:1048A000202811D0022010BD0F4A1368187800F09C
:1048B0007F012129F6D10D4912680024204691611B
:1048C00054828847204610BD074A1168087800F0D6
:1048D0007F01212903D0064A0220137010BD044C29
:1048E00004492370E8E700BF28100020454900086C
:1048F000910200205D4900080C4B19680A7802F00B
:104900007F03212B01D002207047022808D02228E3
:10491000F9D1C87800F003010020022902D07047C5
:1049200000207047024A1170704700BF2810002015
:104930009002002009B1022070470128FBD80846E8
:10494000704700BF08B103487047034B082219683D
:104950000A827047D80000202810002008B10348C0
:104960007047034B082219680A827047D80000205C
:104970002810002008B5064B1968CA78042A05D803
:10498000044B03EBC201044A904708BD002008BD58
:1049900028100020B80000200955000808B540F292
:1049A000540145F20953C2F20001C0F600039847D2
:1049B00008BD00BF08B540F2B00145F20953C2F28C
:1049C0000001C0F60003984708BD00BF41F228026D
:1049D00046F2F433C0F60003C2F200021068D9793F
:1049E0002DE9F047002445F6094541728472C472EE
:1049F000C0F60005204645F61D46A847C0F600064D
:104A000020464FF4007145F63545B047C0F6000525
:104A10001021204645F6895AA847C0F6000A4021D1
:104A2000204645F66558D047C0F60008802120464C
:104A300045F6FD47C047C0F600072046B84740F29C
:104A40005C02C2F2000245F6116992F82C10C0F621
:104A500000092046C84745F6D943C0F60003204662
:104A6000984701202146B0470120C021C04745F6A4
:104A7000754701202021A847C0F6000701202146E4
:104A8000B84702204FF4C061B04702204FF4807154
:104A9000C04702202146B84702202021A847032012
:104AA0002146B04703204FF48871D04703204021AE
:104AB000C84703204FF44051B84721460320A84778
:104AC00045F6E5112046C0F60001884740F29420E3
:104AD000C2F2000001220260BDE8F08745F2F50352
:104AE00010B5C0F60003984741F22800C2F200005A
:104AF0000268002444F619319472C0F60001884718
:104B000045F68563C0F60003984740F29420C2F250
:104B10000000046010BD00BF38B544F68D7301205D
:104B2000C0F60003984745F6444545F6404341F238
:104B30002C02C4F2000300214FF4E0540120C4F21F
:104B40000005C2F20002186019600846296014804E
:104B50001C6038BDF0B5002183B045F640434FF4EA
:104B6000B8420191C4F20003C4F20002186814684C
:104B70006049A5B245F604460D60C4F200063768E8
:104B800045F60842BCB24C60C4F20002156845F616
:104B90000C46AFB28F60C4F20006346845F610428E
:104BA000A5B2CD60C4F20002166845F61447B4B24F
:104BB0000C61C4F200073D6845F61842AEB24E6182
:104BC000C4F20002176845F61C45BCB28C61C4F201
:104BD00000052E6882B24FF6FE7442F480620440F3
:104BE000B7B244F4806542F0010645F64440CF6117
:104BF000C4F200001A601E601D60026845F644435E
:104C00005205C4F20003F8D54FF6FF30186008686B
:104C10004FF4B84280B2C4F200021060486845F612
:104C2000044280B2C4F200021060886845F608426F
:104C300080B2C4F200021060C86845F60C4280B22F
:104C4000C4F200021060086945F6104280B2C4F256
:104C500000021060486945F6144280B2C4F20002B6
:104C60001060886945F6184280B2C4F200021060F4
:104C7000C86945F6404245F61C41C4F2000280B2C4
:104C8000C4F2000144F481640860146010684FF4B9
:104C9000E04184B244F004001060C4F200010868EE
:104CA0004EF6105401900868CEF2000420F0030084
:104CB00040F001000860206840F00400206018689F
:104CC000C0040FD54EF6FF70186010684FF6F773EA
:104CD00003401360019A0A60216821F004002060FB
:104CE00003B0F0BD044B9847226822F00401216014
:104CF000F6E700BFD80700203951000810B545F687
:104D00004044C4F2000423684FF6FB721A4044F694
:104D1000BD602260C0F6000080474FF43F41216033
:104D200010BD00BF10B52B4C072818BF207023788A
:104D3000052B19D8DFE803F01B222A2F3A036078ED
:104D4000411ECAB26270637883B945F64042C4F22C
:104D5000000210684FF6EF71014011601D4A1E49B4
:104D6000062010700B6010BD0621217010BD1A4A7C
:104D70001168002928D00520207010BD174A9047DF
:104D8000154B042101202170186010BD022303205F
:104D90006370207010BD6278511ECBB26370607872
:104DA0000028E3D10B4904220A7010BD45F64043A8
:104DB000C4F20003186882B242F0100119600A20A0
:104DC00005232370607010BD044B984706222270A3
:104DD00010BD00BFD40700209C020020FD4C00083D
:104DE00040F21443C4F201034FF480221A6070476A
:104DF00070B48AB3561EF2B2531C5E00030FB21E8B
:104E00000024092BC2F3400228D937330B70022348
:104E10000001B3424C701FD052B1020F092A13D9BE
:104E20003732CA54CA1802330001B342547013D047
:104E3000050F092D15D83035CD540001020FCD18BE
:104E40000233092A6C70EBD83032CA54CA180233C4
:104E50000001B3425470EBD170BC704730330B701B
:104E6000D5E73735CD54E8E708B544F2E153C0F64D
:104E70000003984708BD00BF41F20403C4F20103D8
:104E80001A6822F470001860196841F400121A6060
:104E900018681860704700BF41F20402C4F20202B1
:104EA000116841F21C0321F480001060C4F2020377
:104EB0001A6842F400011960704700BF054B987AE8
:104EC00018B9054901220A607047034B0520186094
:104ED000704700BF081000209402002040F21442E6
:104EE00038B5C4F201024FF480214FF480631160A1
:104EF000C4F20103186840F2044420F480251D60C8
:104F0000C4F2010422684FF4816122F48020206001
:104F1000C4F201010C6840F20C4544F480220A609E
:104F2000C4F20105296844F2A11421F4802028600C
:104F30001D6844F6696145F480259020C0F60001A3
:104F40000022C0F600041D60A0474FF46143CEF27A
:104F500000031A68E82042F48011196044F6E15118
:104F6000C0F600010022A0474EF20410CEF200006D
:104F700002684FF4826342F480610160C4F201036D
:104F8000186840F480221A6038BD00BF41F20C035B
:104F9000C4F201031A6818B942F40050186070474F
:104FA00022F40051196070472DE9F0410F4682B09C
:104FB000054661B303784A1E05200124154E0DF104
:104FC000070102EA04088DF80730B047BC421ED240
:104FD000B8F1000F09D06B7805200DF1070102240C
:104FE0008DF80730B047BC4211D22A5D0DF10701A0
:104FF000013405208DF80720B0472B5D05200DF109
:10500000070101348DF80730B047BC42EDD302B040
:10501000BDE8F0818D40000870B5204C2378012B4D
:1050200023D01F4D2B68B3F5006F2CD01D4A11689B
:105030008B422FD01AD898B2CE1A1B4A402E166037
:105040001BD9403E403316602B604026174B01258C
:1050500018183246C021164B25709847284631460D
:10506000144A904728461449884770BDC3F5006626
:105070000D4A402E166098B2E3D8F1182960002539
:10508000B6B21560E2E7074900200968286009B157
:105090000346D1E70020207070BD00BFA0020020B1
:1050A000A8020020A4020020AC020020F807002083
:1050B000415B0008F15D0008B55C00080A4B10B4C4
:1050C00019684A1CB2F5006F0CD2084B084C1968DD
:1050D0004A1CB2F5006F60541A6001D100201860BC
:1050E00010BC7047FEE700BFAC020020A402002005
:1050F000F807002038B54FF2E8724FF2F073C1F6AE
:10510000FF72C1F6FF7310681A684FF2EC71C1F6B6
:10511000FF7180180C6807D004490822044DA84785
:10512000204604490422A84738BD00BF02000020E1
:10513000F14D00081200002030BF704708B538B1AB
:10514000064B186801688847054A10680A3008BD90
:10515000034B012219680A8208BD00BF24100020F9
:105160002810002008B538B1064B186881688847B8
:10517000054A10680C3008BD034B012219680A82E9
:1051800008BD00BF241000202810002008B500280A
:105190003BD0234B234800211A680180137813F079
:1051A0007F0312D1537A03F02002D1B259BB0278A7
:1051B00003F04003D9B211B342F0010303701A485F
:1051C00001680A699047174808BD012B16D0022BC9
:1051D00013D1517901F00F02930003F1804202F5DF
:1051E000B84311F0800F196814D101F44052B2F5A0
:1051F000805FE4D101210170E1E7084608BD22F09B
:1052000001020270DBE70222D2E7054B0222196895
:105210000A8208BD01F03003102BD0D1EAE700BFAD
:1052200028100020F80F0020241000202DE9F04164
:10523000274E3468238A277A23B9042F2AD0A58AD7
:10524000042703E0A58AAB42FAD902279D4228BF72
:105250001D46A169284688471E4A8046002090477F
:105260002A4601461C4B40469847294600201B4AC7
:105270009047208A618A431B23826D181848194B76
:10528000658230224FF440513468028019802772C1
:10529000BDE8F081144A1078012806D01049102783
:1052A0000F8007272772BDE8F08145F65040C4F211
:1052B0000000006843F2020180B2C2F2000141180E
:1052C000480007490360302008801370DFE700BF03
:1052D00028100020B15D0008415B0008F15D000866
:1052E000301000202E100020B002002010B50B4B13
:1052F0000B4A18685178C378994201D2022010BD38
:105300008278002AFAD18488002CF7D1837205486C
:1053100001684B689847204610BD00BF2810002048
:10532000E00000202410002038B5104A104C11680D
:1053300023688A695879D97890472368997A09B996
:10534000022038BD0028FBD118790028F8D19D78BB
:10535000002DF5D1074A1368D96888472368284685
:105360005979DA78D9721A7338BD00BF001000205D
:10537000281000202410002038B5354B1B68187801
:1053800010F07F0003D0022806D0022038BD597AE1
:1053900021F020025A7238BD5A88002AF6D11979B4
:1053A0000029F3D15A7922F08000810001F1804474
:1053B000150604F5B84456BF2468256804F4405522
:1053C000244C48BF05F030052478A042DDD2002DE2
:1053D000DBD09B7A002BD8D002F08002D3B273B11D
:1053E00001F1804101F5B842136803F03001102942
:1053F00021D0194801684A699047002038BD01F161
:10540000804101F5B844226802F44053B3F5805F4F
:10541000EFD1C8B9114A124B92F82C109847206866
:105420004BF68F71014081F4405242F4004343F047
:1054300080002060DDE7C4B220460A4A904720463B
:105440003021094B9847D4E708498847E7E700BF70
:1054500028100020E0000020241000205C00002024
:10546000115E0008415D0008355C00081D5D000804
:1054700038B5224B19684B7923F08002900000F177
:1054800080441D0604F5B84456BF2468256804F41A
:1054900040551B4C48BF05F030052478A24201D38B
:1054A000022038BD4A88002AFAD1002DF8D0897A26
:1054B0000029F5D003F0800300F1804000F5B842E8
:1054C000DBB211687BB148F6BF70084080F0100174
:1054D00041F4004343F0800010600A4A11688B6970
:1054E0009847002038BD4BF68F730B4083F48050F3
:1054F00040F4004141F080031360EEE728100020E3
:10550000E000002024100020054B1B685A8A10B1CF
:1055100008688018704789888A1A1A82704700BF05
:105520002810002008B50C4B002093F82C100B4AD3
:1055300090470B480168087A082806D1094B4FF4B8
:1055400080521A80084A10211180B0F1090CDCF158
:10555000000050EB0C0008BD5C000020115E00084C
:10556000281000202E10002030100020F8B5334DF8
:105570002C68237A022B07D0042B05D0032B08D0EC
:10558000052B06D0072B0DD0082222722C4B9847F2
:10559000F8BDA169208A11B358B9A48A002C45D05E
:1055A000284A2EE028480168CA6890472C680822DB
:1055B000EBE7A68A864228BF064630468847638ABC
:1055C0000746208AF118821B228261821F4B00202D
:1055D0009847324601461E4B38469847208A002895
:1055E000DBD01C4B00204FF4405201461A801A4A6F
:1055F0009047238AA18A134A30209942108015D9F6
:10560000C3B92C68062145F650432172C4F2000349
:10561000186843F2020381B2C2F20003C8184300C3
:105620000021196030201080227AAEE72C68032216
:105630002272AAE72C6805222272A6E72810002011
:10564000255500083010002000100020D15D000812
:10565000B95B00082E100020F15D0008F0B545F69A
:1056600050439E4DC4F200031A682C6843F20400B4
:1056700091B2C2F20000227A0E187300092A83B098
:105680001E6844D0B7B2780000F1804101F5C046F1
:105690003278934F227073786370B088B847608017
:1056A00030892C68B847A080B0892C680121E0803F
:1056B0002172002830D06178062900F08780002907
:1056C0005ED16388002B00F09480864E33680846D4
:1056D0001969884703282B6862D01A8A4FF6FF7130
:1056E0008A425DD002280CD05AB193F900100029EB
:1056F000C0F2B58003221A727B4B4FF440501880E1
:1057000001E008201872794B984703B0F0BDE0889B
:10571000012121720028CED12278667812F07F0311
:1057200041D1092E00F00881052E00F0BF80032E24
:1057300000F0F080012E3BD1E178012938D1A28818
:10574000002A35D1637A03F02004E0B200282FD07C
:105750006749884760BB2C6845F65040C4F200009A
:10576000016843F202038AB2C2F20003D01841007A
:105770000023604A0B603020062110802172C2E7AE
:10578000082948D1207843069FD15B4A0020A261B6
:10579000608290472B684FF6FF701A8A8242A3D12D
:1057A00009211972AFE7012B71D0022B00F08D8017
:1057B0004C4930460A6853699847032800F0C58071
:1057C0002C680028C8D0082121729CE7267873062F
:1057D0007FF47BAFA278434E012A00F0B080022A0A
:1057E0005ED0032A7FF472AF3068426A002ACDD1BE
:1057F0006CE7606820F47F42B2F5003F7FF465AF4C
:10580000237813F07F0040F0A480A388002B7FF45E
:105810005CAF3A4ABAE70A297FF457AF267806F018
:105820007F02012A7FF451AFA37A002B3FF44DAFE2
:105830006388002B7FF449AF60682A4E20F47F42D2
:10584000B2F5803F7FF442AF3268194660799369C0
:105850009847002840F0B8802C68294A96E7D988F4
:1058600001910198824217D88A421E4908D20868DD
:1058700090F82C00824280F08F80224A0020107025
:10588000096891F82C209A821F4B98473BE70B2E12
:105890008ED11E4880475DE7019812491882EFE7D4
:1058A00033681A6A002A7FF471AF0FE794F9030096
:1058B000002888DBA178002985D1A288002A82D11E
:1058C000A37A002B3FF448AF7DE7012E3FF440AFB1
:1058D000032E7FF46DAF0E4CA0473BE7281000204D
:1058E000795E0008001000202E10002025550008C9
:1058F00079530008301000203D5100088D510008F8
:1059000065510008B00200202D52000829530008FC
:1059100071540008E278012A7FF44AAFA388002B73
:105920007FF446AF607A2A4A40F020011368617222
:10593000DC69A0472C680FE7264CA0470AE73268CD
:10594000D269002A7FF422AFC0E62C6809212172B7
:10595000D9E601282BD002287FF4B7AE637903F093
:105960000F02960006F1804000F5B8401E0656BFB3
:105970000068066800F44056174848BF06F0300635
:1059800000788242BFF4A1AE13F0700F7FF49DAE99
:10599000002E7FF43EAF98E692FBF0F400FB142259
:1059A000002A7FF46DAF0D4A0120107068E70C4E9D
:1059B000607933689A69904730B92C68A07A0028DA
:1059C0007FF427AF617881E6296849787EE600BFD9
:1059D00024100020ED520008E0000020B00200205A
:1059E00000100020F0B4284B1E78002E43D04FF456
:1059F000B842C4F20002146840F60F71214041F42D
:105A0000004343F0800111600122741E45F60443F7
:105A1000964204F00104C4F200032CD97CB1196849
:105A200040F60F720A4042F4004141F081021A60D0
:105A3000022245F608439642C4F200031BD91F68B0
:105A400042F4004540F60F7445F080053C4045EABD
:105A50000407194641F8047B5F68013242F40045AF
:105A600040F60F7445F080053C402C4301325C60E9
:105A70000B1D9642E3D845F64C4340F08000C4F23B
:105A800000031860F0BC7047E000002010B5144C13
:105A900023681A7A022A12D0042A10D0062A04D0C7
:105AA000082018720F4B984710BD597805290BD064
:105AB0000D4B18688168884723680820F1E70B4A76
:105AC00090472368187AECE71A785206F0D1D87814
:105AD000074B9847074801680A6A9047E8E700BF04
:105AE0002810002025550008001000202D52000825
:105AF000E559000824100020704700BF10B541F29E
:105B0000080241F22804C2F20002C2F2000422603C
:105B10000224147241F2000040F25C0341F22401BD
:105B200040F28C02C2F20003C2F20000C2F2000195
:105B3000C2F2000203600A601868804710BD00BF0F
:105B400001F1005101F54051531C4A00591030B485
:105B50002FD04578023010F8024C013944EA052371
:105B600022F8043B0B46043201F00101023003B37A
:105B700059B110F8014C10F8021C023041EA04211E
:105B800022F8041C0432013B13D010F8021C10F858
:105B9000014C41EA042422F8044C4478023010F805
:105BA000021C023041EA042122F8041B0432023BA9
:105BB000EBD130BC704700BF01F1005101F54053FB
:105BC00001325900521030B41CD00B68013A20F851
:105BD000023B1346023002F001029BB132B151F890
:105BE000042F20F8022C0230013B0BD00C1D4D6815
:105BF0008968024620F8025C22F8021B901C211DD5
:105C0000023BF3D130BC70474FF6F87345F6504273
:105C10000340C4F200021360704700BF800000F12F
:105C2000804202F5B842106848F68F1303401943CA
:105C300011607047800000F1804202F5B84210B454
:105C400001F01000146848F6BF7380B2234068B9B1
:105C50009BB201F0200188B208B183F0200343F425
:105C6000004141F08000106010BC704783F01003C9
:105C7000EFE700BF800000F1804202F5B84210B4A7
:105C800001F4805014684BF68F7380B2234068B9DA
:105C90009BB201F4005188B208B183F4005343F47D
:105CA000004141F08000106010BC704783F48053C5
:105CB000EFE700BF800000F1804202F5B8400168C4
:105CC00048F6BF730B4083F0300242F4004141F0CC
:105CD00080030360704700BF800000F1804202F53E
:105CE000B84001684BF68F730B4083F4405242F486
:105CF000004141F080030360704700BF800000F165
:105D0000804202F5B840016840F60F630B4043F44F
:105D1000004242F080010160704700BF800000F146
:105D2000804303F5B8400268510408D5016840F685
:105D30000F730B4043F4404242F080010160704712
:105D4000800000F1804303F5B8431A68500608D577
:105D5000196840F60F70084040F4004242F0C0015C
:105D60001960704745F65043C4F200031A684FF6B5
:105D7000FE7392B202EBC00000F1005202F54050F7
:105D800042000B401360704745F65043C4F20003D5
:105D90001A6843F2040392B202EBC000C2F200039D
:105DA000C3184FF6FE7258000A400260704700BFE9
:105DB00045F65043C4F2000319688AB202EBC000F2
:105DC00000F1005303F540514A001088704700BFAE
:105DD00045F65043C4F200031A6843F2040193B23B
:105DE00003EBC000C2F2000142185100088870475E
:105DF00045F65043C4F200031A6843F2020392B21C
:105E000002EBC000C2F20003C3185A0011607047D1
:105E100045F65043C4F200031A6843F2060392B2F7
:105E200002EBC000C2F20003C3185B003E2909D98F
:105E30004A09C90601D1501E82B2910241F40040C4
:105E4000186070474A08C80748BF013291021960BC
:105E5000704700BF45F65043C4F200031A6843F28E
:105E6000060193B203EBC000C2F2000142185100D8
:105E70000B689805800D7047C3B2000A40EA032002
:105E8000704700BF10B441F22C0345F6444445F678
:105E900040424FF43F410020C4F20004C2F200032C
:105EA000C4F2000220601980116010BC704700BF6E
:105EB00070B545F6556300F07F05C0F6000328462F
:105EC0000E46984745F6D1510446C0F600012846D3
:105ED000884745F6B933014622463046C0F60003EE
:105EE0009847204670BD00BF2DE9F04FDFF8ACA108
:105EF00083B045F6444B0023DFF8A491624DADF822
:105F00000630C4F2000BD046DBF800004FF4B84472
:105F100082B20304AAF8002040F1AB80B8F8003048
:105F2000C4F2000403F00F02900000F18040574ECD
:105F30004BF6BF71544F134600F5B84089F8002066
:105F4000002A33D1226890B228802B8803F03002D7
:105F50003280288800F440532B802268114081F45D
:105F6000005181F0200040F4004343F080022260A1
:105F7000B8F8001001F0100083B2002B49D022685D
:105F800091B2ADF80610BDF8060000F400639AB2B5
:105F9000002A71D1BDF8061008B20028B4DA2268D0
:105FA00040F68F7313402360394938E00468A1B28A
:105FB000ADF80610BDF8062014B2002C1BDBBDF8AE
:105FC000061001F0800293B2002B9DD099F800409A
:105FD00048F60F73A00000F1804101F5B842106847
:105FE000013C0340136040F21C03C2F2000353F86B
:105FF0002410884788E7016840F68F720A400260E3
:1060000040F23800013BC2F2000050F82340A047A4
:10601000D5E7216848F60F730B401E492360884777
:1060200020683A884BF6BF7302F480518AB203406D
:106030000AB183F48053388800F400518AB20AB15F
:1060400083F40053308800F010018AB20AB183F063
:106050001003308800F020018AB20AB183F02003D7
:1060600043F400404FF4B84140F08002C4F2000114
:106070000A6003B0BDE8F08F206840F68F720240DE
:1060800022600549CBE700BF2E1000203010002011
:106090006D5500088D5A00085D560008D007002095
:1060A000041000200A0A00002A2A2A2A2A2A2A2A58
:1060B0002A2A2A2A2A2A2A2A2A2A2A2A2A2A2A2A40
:1060C0002A2A2A2A2A2A2A2A2A2A2A2A2A2A2A2A30
:1060D0002A2A2A2A2A2A2A2A2A2A2A2A2A2A2A0A40
:1060E0000000000020202020202020202020202030
:1060F000202020202020202020204F70656E434D3E
:10610000202020202020202020202020202020208F
:1061100020202020202020202020200A0000000015
:106120002A20312E20202020202020202020202046
:10613000202020202020202020202020202020205F
:10614000202020202020202020202020202020204F
:106150002020202020202A0A000000002A20322EA1
:10616000202020202020202020202020202020202F
:10617000202020202020202020202020202020201F
:10618000202020202020202020202020202020200F
:1061900020202A0A000000002A20332E2020202060
:1061A00020202020202020202020202020202020EF
:1061B00020202020202020202020202020202020DF
:1061C00020202020202020202020202020202A0ADB
:1061D000000000002A20342E202020202020202013
:1061E00020202020202020202020202020202020AF
:1061F000202020202020202020202020202020209F
:10620000202020202020202020202A0A000000001A
:106210002A20352E20202020202020202020202051
:10622000202020202020202020202020202020206E
:10623000202020202020202020202020202020205E
:106240002020202020202A0A000000002A20362EAC
:10625000202020202020202020202020202020203E
:10626000202020202020202020202020202020202E
:10627000202020202020202020202020202020201E
:1062800020202A0A000000002A20372E202020206B
:1062900020202020202020202020202020202020FE
:1062A00020202020202020202020202020202020EE
:1062B00020202020202020202020202020202A0AEA
:1062C000000000002A20382E20202020202020201E
:1062D00020202020202020202020202020202020BE
:1062E00020202020202020202020202020202020AE
:1062F000202020202020202020202A0A000000002A
:106300002A20392E2020202020202020202020205C
:10631000202020202020202020202020202020207D
:10632000202020202020202020202020202020206D
:106330002020202020202A0A000000002A206D2E84
:1063400020204D656E752020202020202020202038
:10635000202020202020202020202020202020203D
:10636000202020202020202020202020202020202D
:1063700020202A0A000000000A0000003E3E200003
:106380002603530054004D006900630072006F0043
:1063900065006C0065006300740072006F006E00A1
:1063A0006900630073000000120100020200004057
:1063B00083044057000201020301000004030904A2
:1063C0003203530054004D003300320020005600C9
:1063D000690072007400750061006C0020004300C9
:1063E0004F004D00200050006F007200740020002C
:1063F0002000000009024300020100C0320904002D
:106400000001020201000524001001052401000121
:10641000042402020524060001070582030800FF88
:1064200009040100020A0000000705030240000001
:08643000070581024000000095
:106438001A03530054004D003300320000000000DE
:10644800000000000000000000000000D544000823
:10645800F95A0008F95A0008F95A0008F95A0008C8
:10646800F95A0008F95A0008F95A0008F95A0008B8
:1064780049450008F95A0008F95A0008F95A00086D
:10648800F95A0008F463000843000000DD4A0008D8
:10649800CD49000881480008954800089948000837
:1064A800F948000835490008B54900089D49000821
:1064B800754900080000000040000000F95A000873
:1064C80059480008F95A0008F95A0008F95A00080A
:1064D800F95A0008F95A0008F95A000871480008E2
:1064E800A863000812000000BC6300080400000054
:1064F8008063000826000000C06300083200000026
:10650800000000201A00000000C20100000008007E
:04651800040100007A
:0400000508003C5162
:00000001FF
